{
    "_format": "hh-sol-artifact-1",
    "contractName": "MyEpicNFT",
    "sourceName": "contracts/MyEpicNFT.sol",
    "abi": [
        {
            "inputs": [],
            "stateMutability": "nonpayable",
            "type": "constructor"
        },
        {
            "anonymous": false,
            "inputs": [
                {
                    "indexed": true,
                    "internalType": "address",
                    "name": "owner",
                    "type": "address"
                },
                {
                    "indexed": true,
                    "internalType": "address",
                    "name": "approved",
                    "type": "address"
                },
                {
                    "indexed": true,
                    "internalType": "uint256",
                    "name": "tokenId",
                    "type": "uint256"
                }
            ],
            "name": "Approval",
            "type": "event"
        },
        {
            "anonymous": false,
            "inputs": [
                {
                    "indexed": true,
                    "internalType": "address",
                    "name": "owner",
                    "type": "address"
                },
                {
                    "indexed": true,
                    "internalType": "address",
                    "name": "operator",
                    "type": "address"
                },
                {
                    "indexed": false,
                    "internalType": "bool",
                    "name": "approved",
                    "type": "bool"
                }
            ],
            "name": "ApprovalForAll",
            "type": "event"
        },
        {
            "anonymous": false,
            "inputs": [
                {
                    "indexed": false,
                    "internalType": "address",
                    "name": "sender",
                    "type": "address"
                },
                {
                    "indexed": false,
                    "internalType": "uint256",
                    "name": "tokenId",
                    "type": "uint256"
                }
            ],
            "name": "NewEpicNFTMinted",
            "type": "event"
        },
        {
            "anonymous": false,
            "inputs": [
                {
                    "indexed": true,
                    "internalType": "address",
                    "name": "from",
                    "type": "address"
                },
                {
                    "indexed": true,
                    "internalType": "address",
                    "name": "to",
                    "type": "address"
                },
                {
                    "indexed": true,
                    "internalType": "uint256",
                    "name": "tokenId",
                    "type": "uint256"
                }
            ],
            "name": "Transfer",
            "type": "event"
        },
        {
            "inputs": [
                {
                    "internalType": "address",
                    "name": "to",
                    "type": "address"
                },
                {
                    "internalType": "uint256",
                    "name": "tokenId",
                    "type": "uint256"
                }
            ],
            "name": "approve",
            "outputs": [],
            "stateMutability": "nonpayable",
            "type": "function"
        },
        {
            "inputs": [
                {
                    "internalType": "address",
                    "name": "owner",
                    "type": "address"
                }
            ],
            "name": "balanceOf",
            "outputs": [
                {
                    "internalType": "uint256",
                    "name": "",
                    "type": "uint256"
                }
            ],
            "stateMutability": "view",
            "type": "function"
        },
        {
            "inputs": [
                {
                    "internalType": "uint256",
                    "name": "tokenId",
                    "type": "uint256"
                }
            ],
            "name": "getApproved",
            "outputs": [
                {
                    "internalType": "address",
                    "name": "",
                    "type": "address"
                }
            ],
            "stateMutability": "view",
            "type": "function"
        },
        {
            "inputs": [
                {
                    "internalType": "address",
                    "name": "owner",
                    "type": "address"
                },
                {
                    "internalType": "address",
                    "name": "operator",
                    "type": "address"
                }
            ],
            "name": "isApprovedForAll",
            "outputs": [
                {
                    "internalType": "bool",
                    "name": "",
                    "type": "bool"
                }
            ],
            "stateMutability": "view",
            "type": "function"
        },
        {
            "inputs": [],
            "name": "makeAnEpicNFT",
            "outputs": [],
            "stateMutability": "nonpayable",
            "type": "function"
        },
        {
            "inputs": [],
            "name": "name",
            "outputs": [
                {
                    "internalType": "string",
                    "name": "",
                    "type": "string"
                }
            ],
            "stateMutability": "view",
            "type": "function"
        },
        {
            "inputs": [
                {
                    "internalType": "uint256",
                    "name": "tokenId",
                    "type": "uint256"
                }
            ],
            "name": "ownerOf",
            "outputs": [
                {
                    "internalType": "address",
                    "name": "",
                    "type": "address"
                }
            ],
            "stateMutability": "view",
            "type": "function"
        },
        {
            "inputs": [
                {
                    "internalType": "uint256",
                    "name": "tokenId",
                    "type": "uint256"
                }
            ],
            "name": "pickRandomFirstWord",
            "outputs": [
                {
                    "internalType": "string",
                    "name": "",
                    "type": "string"
                }
            ],
            "stateMutability": "view",
            "type": "function"
        },
        {
            "inputs": [
                {
                    "internalType": "uint256",
                    "name": "tokenId",
                    "type": "uint256"
                }
            ],
            "name": "pickRandomSecondWord",
            "outputs": [
                {
                    "internalType": "string",
                    "name": "",
                    "type": "string"
                }
            ],
            "stateMutability": "view",
            "type": "function"
        },
        {
            "inputs": [
                {
                    "internalType": "uint256",
                    "name": "tokenId",
                    "type": "uint256"
                }
            ],
            "name": "pickRandomThirdWord",
            "outputs": [
                {
                    "internalType": "string",
                    "name": "",
                    "type": "string"
                }
            ],
            "stateMutability": "view",
            "type": "function"
        },
        {
            "inputs": [
                {
                    "internalType": "address",
                    "name": "from",
                    "type": "address"
                },
                {
                    "internalType": "address",
                    "name": "to",
                    "type": "address"
                },
                {
                    "internalType": "uint256",
                    "name": "tokenId",
                    "type": "uint256"
                }
            ],
            "name": "safeTransferFrom",
            "outputs": [],
            "stateMutability": "nonpayable",
            "type": "function"
        },
        {
            "inputs": [
                {
                    "internalType": "address",
                    "name": "from",
                    "type": "address"
                },
                {
                    "internalType": "address",
                    "name": "to",
                    "type": "address"
                },
                {
                    "internalType": "uint256",
                    "name": "tokenId",
                    "type": "uint256"
                },
                {
                    "internalType": "bytes",
                    "name": "_data",
                    "type": "bytes"
                }
            ],
            "name": "safeTransferFrom",
            "outputs": [],
            "stateMutability": "nonpayable",
            "type": "function"
        },
        {
            "inputs": [
                {
                    "internalType": "address",
                    "name": "operator",
                    "type": "address"
                },
                {
                    "internalType": "bool",
                    "name": "approved",
                    "type": "bool"
                }
            ],
            "name": "setApprovalForAll",
            "outputs": [],
            "stateMutability": "nonpayable",
            "type": "function"
        },
        {
            "inputs": [
                {
                    "internalType": "bytes4",
                    "name": "interfaceId",
                    "type": "bytes4"
                }
            ],
            "name": "supportsInterface",
            "outputs": [
                {
                    "internalType": "bool",
                    "name": "",
                    "type": "bool"
                }
            ],
            "stateMutability": "view",
            "type": "function"
        },
        {
            "inputs": [],
            "name": "symbol",
            "outputs": [
                {
                    "internalType": "string",
                    "name": "",
                    "type": "string"
                }
            ],
            "stateMutability": "view",
            "type": "function"
        },
        {
            "inputs": [
                {
                    "internalType": "uint256",
                    "name": "tokenId",
                    "type": "uint256"
                }
            ],
            "name": "tokenURI",
            "outputs": [
                {
                    "internalType": "string",
                    "name": "",
                    "type": "string"
                }
            ],
            "stateMutability": "view",
            "type": "function"
        },
        {
            "inputs": [],
            "name": "totalMintCount",
            "outputs": [
                {
                    "internalType": "uint256",
                    "name": "",
                    "type": "uint256"
                }
            ],
            "stateMutability": "view",
            "type": "function"
        },
        {
            "inputs": [
                {
                    "internalType": "address",
                    "name": "from",
                    "type": "address"
                },
                {
                    "internalType": "address",
                    "name": "to",
                    "type": "address"
                },
                {
                    "internalType": "uint256",
                    "name": "tokenId",
                    "type": "uint256"
                }
            ],
            "name": "transferFrom",
            "outputs": [],
            "stateMutability": "nonpayable",
            "type": "function"
        }
    ],
    "bytecode": "0x608060405260405180610160016040528061012f81526020016200454861012f913960089080519060200190620000389291906200067e565b506040518060c001604052806040518060400160405280600681526020017f536563726574000000000000000000000000000000000000000000000000000081525081526020016040518060400160405280600481526020017f496465610000000000000000000000000000000000000000000000000000000081525081526020016040518060400160405280600581526020017f436865636b00000000000000000000000000000000000000000000000000000081525081526020016040518060400160405280600981526020017f4261736963616c6c79000000000000000000000000000000000000000000000081525081526020016040518060400160405280600481526020017f4d6574610000000000000000000000000000000000000000000000000000000081525081526020016040518060400160405280600881526020017f44657363726962650000000000000000000000000000000000000000000000008152508152506009906006620001b69291906200070f565b506040518060c001604052806040518060400160405280600381526020017f446f67000000000000000000000000000000000000000000000000000000000081525081526020016040518060400160405280600781526020017f576561746865720000000000000000000000000000000000000000000000000081525081526020016040518060400160405280600481526020017f426f6f6b0000000000000000000000000000000000000000000000000000000081525081526020016040518060400160405280600481526020017f476f6f640000000000000000000000000000000000000000000000000000000081525081526020016040518060400160405280600681526020017f5065726d6974000000000000000000000000000000000000000000000000000081525081526020016040518060400160405280600481526020017f436f6f6c00000000000000000000000000000000000000000000000000000000815250815250600a906006620003349291906200070f565b506040518060c001604052806040518060400160405280600581526020017f537461727400000000000000000000000000000000000000000000000000000081525081526020016040518060400160405280600681526020017f446f63746f72000000000000000000000000000000000000000000000000000081525081526020016040518060400160405280600a81526020017f496c6c757374726174650000000000000000000000000000000000000000000081525081526020016040518060400160405280600581526020017f436f6c6f7200000000000000000000000000000000000000000000000000000081525081526020016040518060400160405280600581526020017f526967687400000000000000000000000000000000000000000000000000000081525081526020016040518060400160405280600581526020017f536d617274000000000000000000000000000000000000000000000000000000815250815250600b906006620004b29291906200070f565b50348015620004c057600080fd5b506040518060400160405280600981526020017f5371756172654e465400000000000000000000000000000000000000000000008152506040518060400160405280600681526020017f53515541524500000000000000000000000000000000000000000000000000008152508160009080519060200190620005459291906200067e565b5080600190805190602001906200055e9291906200067e565b505050620005ac6040518060400160405280601881526020017f54686973206973206d79204e465420636f6e74726163742e0000000000000000815250620005b260201b620012041760201c565b62000930565b6200065281604051602401620005c9919062000844565b6040516020818303038152906040527f41304fac000000000000000000000000000000000000000000000000000000007bffffffffffffffffffffffffffffffffffffffffffffffffffffffff19166020820180517bffffffffffffffffffffffffffffffffffffffffffffffffffffffff83818316178352505050506200065560201b60201c565b50565b60008151905060006a636f6e736f6c652e6c6f679050602083016000808483855afa5050505050565b8280546200068c90620008ba565b90600052602060002090601f016020900481019282620006b05760008555620006fc565b82601f10620006cb57805160ff1916838001178555620006fc565b82800160010185558215620006fc579182015b82811115620006fb578251825591602001919060010190620006de565b5b5090506200070b919062000776565b5090565b82805482825590600052602060002090810192821562000763579160200282015b8281111562000762578251829080519060200190620007519291906200067e565b509160200191906001019062000730565b5b50905062000772919062000795565b5090565b5b808211156200079157600081600090555060010162000777565b5090565b5b80821115620007b95760008181620007af9190620007bd565b5060010162000796565b5090565b508054620007cb90620008ba565b6000825580601f10620007df575062000800565b601f016020900490600052602060002090810190620007ff919062000776565b5b50565b6000620008108262000868565b6200081c818562000873565b93506200082e81856020860162000884565b62000839816200091f565b840191505092915050565b6000602082019050818103600083015262000860818462000803565b905092915050565b600081519050919050565b600082825260208201905092915050565b60005b83811015620008a457808201518184015260208101905062000887565b83811115620008b4576000848401525b50505050565b60006002820490506001821680620008d357607f821691505b60208210811415620008ea57620008e9620008f0565b5b50919050565b7f4e487b7100000000000000000000000000000000000000000000000000000000600052602260045260246000fd5b6000601f19601f8301169050919050565b613c0880620009406000396000f3fe608060405234801561001057600080fd5b50600436106101165760003560e01c80637a0d2302116100a2578063b88d4fde11610071578063b88d4fde14610305578063c575757a14610321578063c87b56dd14610351578063de9d132f14610381578063e985e9c51461038b57610116565b80637a0d23021461027d57806395d89b411461029b578063a22cb465146102b9578063b187301f146102d557610116565b806323b872dd116100e957806323b872dd146101b55780632de38d68146101d157806342842e0e146102015780636352211e1461021d57806370a082311461024d57610116565b806301ffc9a71461011b57806306fdde031461014b578063081812fc14610169578063095ea7b314610199575b600080fd5b610135600480360381019061013091906126cc565b6103bb565b6040516101429190612df0565b60405180910390f35b61015361049d565b6040516101609190612e0b565b60405180910390f35b610183600480360381019061017e919061271e565b61052f565b6040516101909190612d60565b60405180910390f35b6101b360048036038101906101ae9190612690565b6105b4565b005b6101cf60048036038101906101ca919061258a565b6106cc565b005b6101eb60048036038101906101e6919061271e565b61072c565b6040516101f89190612e0b565b60405180910390f35b61021b6004803603810190610216919061258a565b6108c8565b005b6102376004803603810190610232919061271e565b6108e8565b6040516102449190612d60565b60405180910390f35b61026760048036038101906102629190612525565b61099a565b604051610274919061309b565b60405180910390f35b610285610a52565b604051610292919061309b565b60405180910390f35b6102a3610a68565b6040516102b09190612e0b565b60405180910390f35b6102d360048036038101906102ce9190612654565b610afa565b005b6102ef60048036038101906102ea919061271e565b610b10565b6040516102fc9190612e0b565b60405180910390f35b61031f600480360381019061031a91906125d9565b610c2e565b005b61033b6004803603810190610336919061271e565b610c90565b6040516103489190612e0b565b60405180910390f35b61036b6004803603810190610366919061271e565b610dae565b6040516103789190612e0b565b60405180910390f35b610389610f00565b005b6103a560048036038101906103a0919061254e565b611170565b6040516103b29190612df0565b60405180910390f35b60007f80ac58cd000000000000000000000000000000000000000000000000000000007bffffffffffffffffffffffffffffffffffffffffffffffffffffffff1916827bffffffffffffffffffffffffffffffffffffffffffffffffffffffff1916148061048657507f5b5e139f000000000000000000000000000000000000000000000000000000007bffffffffffffffffffffffffffffffffffffffffffffffffffffffff1916827bffffffffffffffffffffffffffffffffffffffffffffffffffffffff1916145b8061049657506104958261129d565b5b9050919050565b6060600080546104ac9061332f565b80601f01602080910402602001604051908101604052809291908181526020018280546104d89061332f565b80156105255780601f106104fa57610100808354040283529160200191610525565b820191906000526020600020905b81548152906001019060200180831161050857829003601f168201915b5050505050905090565b600061053a82611307565b610579576040517f08c379a00000000000000000000000000000000000000000000000000000000081526004016105709061301b565b60405180910390fd5b6004600083815260200190815260200160002060009054906101000a900473ffffffffffffffffffffffffffffffffffffffff169050919050565b60006105bf826108e8565b90508073ffffffffffffffffffffffffffffffffffffffff168373ffffffffffffffffffffffffffffffffffffffff161415610630576040517f08c379a00000000000000000000000000000000000000000000000000000000081526004016106279061305b565b60405180910390fd5b8073ffffffffffffffffffffffffffffffffffffffff1661064f611373565b73ffffffffffffffffffffffffffffffffffffffff16148061067e575061067d81610678611373565b611170565b5b6106bd576040517f08c379a00000000000000000000000000000000000000000000000000000000081526004016106b490612f5b565b60405180910390fd5b6106c7838361137b565b505050565b6106dd6106d7611373565b82611434565b61071c576040517f08c379a00000000000000000000000000000000000000000000000000000000081526004016107139061307b565b60405180910390fd5b610727838383611512565b505050565b6060600061076061073c84611779565b60405160200161074c9190612d1c565b604051602081830303815290604052611926565b90506107a16040518060400160405280600d81526020017f72616e64202d20736565643a200000000000000000000000000000000000000081525082611959565b600980549050816107b291906133db565b90506107f36040518060400160405280601381526020017f72616e64202d20666972737420776f72643a200000000000000000000000000081525082611959565b6009818154811061082d577f4e487b7100000000000000000000000000000000000000000000000000000000600052603260045260246000fd5b9060005260206000200180546108429061332f565b80601f016020809104026020016040519081016040528092919081815260200182805461086e9061332f565b80156108bb5780601f10610890576101008083540402835291602001916108bb565b820191906000526020600020905b81548152906001019060200180831161089e57829003601f168201915b5050505050915050919050565b6108e383838360405180602001604052806000815250610c2e565b505050565b6000806002600084815260200190815260200160002060009054906101000a900473ffffffffffffffffffffffffffffffffffffffff169050600073ffffffffffffffffffffffffffffffffffffffff168173ffffffffffffffffffffffffffffffffffffffff161415610991576040517f08c379a000000000000000000000000000000000000000000000000000000000815260040161098890612f9b565b60405180910390fd5b80915050919050565b60008073ffffffffffffffffffffffffffffffffffffffff168273ffffffffffffffffffffffffffffffffffffffff161415610a0b576040517f08c379a0000000000000000000000000000000000000000000000000000000008152600401610a0290612f7b565b60405180910390fd5b600360008373ffffffffffffffffffffffffffffffffffffffff1673ffffffffffffffffffffffffffffffffffffffff168152602001908152602001600020549050919050565b600080610a5f60076119f5565b90508091505090565b606060018054610a779061332f565b80601f0160208091040260200160405190810160405280929190818152602001828054610aa39061332f565b8015610af05780601f10610ac557610100808354040283529160200191610af0565b820191906000526020600020905b815481529060010190602001808311610ad357829003601f168201915b5050505050905090565b610b0c610b05611373565b8383611a03565b5050565b60606000610b44610b2084611779565b604051602001610b309190612cb5565b604051602081830303815290604052611926565b9050600a8054905081610b5791906133db565b9050600a8181548110610b93577f4e487b7100000000000000000000000000000000000000000000000000000000600052603260045260246000fd5b906000526020600020018054610ba89061332f565b80601f0160208091040260200160405190810160405280929190818152602001828054610bd49061332f565b8015610c215780601f10610bf657610100808354040283529160200191610c21565b820191906000526020600020905b815481529060010190602001808311610c0457829003601f168201915b5050505050915050919050565b610c3f610c39611373565b83611434565b610c7e576040517f08c379a0000000000000000000000000000000000000000000000000000000008152600401610c759061307b565b60405180910390fd5b610c8a84848484611b70565b50505050565b60606000610cc4610ca084611779565b604051602001610cb09190612c93565b604051602081830303815290604052611926565b9050600b8054905081610cd791906133db565b9050600b8181548110610d13577f4e487b7100000000000000000000000000000000000000000000000000000000600052603260045260246000fd5b906000526020600020018054610d289061332f565b80601f0160208091040260200160405190810160405280929190818152602001828054610d549061332f565b8015610da15780601f10610d7657610100808354040283529160200191610da1565b820191906000526020600020905b815481529060010190602001808311610d8457829003601f168201915b5050505050915050919050565b6060610db982611307565b610df8576040517f08c379a0000000000000000000000000000000000000000000000000000000008152600401610def90612ffb565b60405180910390fd5b6000600660008481526020019081526020016000208054610e189061332f565b80601f0160208091040260200160405190810160405280929190818152602001828054610e449061332f565b8015610e915780601f10610e6657610100808354040283529160200191610e91565b820191906000526020600020905b815481529060010190602001808311610e7457829003601f168201915b505050505090506000610ea2611bcc565b9050600081511415610eb8578192505050610efb565b600082511115610eed578082604051602001610ed5929190612bf5565b60405160208183030381529060405292505050610efb565b610ef684611be3565b925050505b919050565b6000610f0c60076119f5565b90506000610f198261072c565b90506000610f2683610b10565b90506000610f3384610c90565b90506000838383604051602001610f4c93929190612c19565b604051602081830303815290604052905060006008858585604051602001610f779493929190612c4a565b6040516020818303038152906040529050610fc66040518060400160405280601581526020017f0a2d2d2d2d2d205356472064617461202d2d2d2d2d0000000000000000000000815250611204565b610fcf81611204565b61100d6040518060400160405280601581526020017f2d2d2d2d2d2d2d2d2d2d2d2d2d2d2d2d2d2d2d2d0a0000000000000000000000815250611204565b60006110418361101c84611c8a565b60405160200161102d929190612cd7565b604051602081830303815290604052611c8a565b90506000816040516020016110569190612d3e565b60405160208183030381529060405290506110a56040518060400160405280601581526020017f0a2d2d2d2d2d20546f6b656e20555249202d2d2d2d0000000000000000000000815250611204565b6110ae81611204565b6110ec6040518060400160405280601581526020017f2d2d2d2d2d2d2d2d2d2d2d2d2d2d2d2d2d2d2d2d0a0000000000000000000000815250611204565b6110f63389611e48565b6111008882611e66565b611123604051806060016040528060258152602001613b6e602591398933611eda565b61112d6007611f79565b7febb98688741ffa4c7589bf325de30cf7becb63de567842e1ccdb6cb949fdc82c338960405161115e929190612dc7565b60405180910390a15050505050505050565b6000600560008473ffffffffffffffffffffffffffffffffffffffff1673ffffffffffffffffffffffffffffffffffffffff16815260200190815260200160002060008373ffffffffffffffffffffffffffffffffffffffff1673ffffffffffffffffffffffffffffffffffffffff16815260200190815260200160002060009054906101000a900460ff16905092915050565b61129a816040516024016112189190612e0b565b6040516020818303038152906040527f41304fac000000000000000000000000000000000000000000000000000000007bffffffffffffffffffffffffffffffffffffffffffffffffffffffff19166020820180517bffffffffffffffffffffffffffffffffffffffffffffffffffffffff8381831617835250505050611f8f565b50565b60007f01ffc9a7000000000000000000000000000000000000000000000000000000007bffffffffffffffffffffffffffffffffffffffffffffffffffffffff1916827bffffffffffffffffffffffffffffffffffffffffffffffffffffffff1916149050919050565b60008073ffffffffffffffffffffffffffffffffffffffff166002600084815260200190815260200160002060009054906101000a900473ffffffffffffffffffffffffffffffffffffffff1673ffffffffffffffffffffffffffffffffffffffff1614159050919050565b600033905090565b816004600083815260200190815260200160002060006101000a81548173ffffffffffffffffffffffffffffffffffffffff021916908373ffffffffffffffffffffffffffffffffffffffff160217905550808273ffffffffffffffffffffffffffffffffffffffff166113ee836108e8565b73ffffffffffffffffffffffffffffffffffffffff167f8c5be1e5ebec7d5bd14f71427d1e84f3dd0314c0f7b2291e5b200ac8c7c3b92560405160405180910390a45050565b600061143f82611307565b61147e576040517f08c379a000000000000000000000000000000000000000000000000000000000815260040161147590612f3b565b60405180910390fd5b6000611489836108e8565b90508073ffffffffffffffffffffffffffffffffffffffff168473ffffffffffffffffffffffffffffffffffffffff1614806114cb57506114ca8185611170565b5b8061150957508373ffffffffffffffffffffffffffffffffffffffff166114f18461052f565b73ffffffffffffffffffffffffffffffffffffffff16145b91505092915050565b8273ffffffffffffffffffffffffffffffffffffffff16611532826108e8565b73ffffffffffffffffffffffffffffffffffffffff1614611588576040517f08c379a000000000000000000000000000000000000000000000000000000000815260040161157f90612ebb565b60405180910390fd5b600073ffffffffffffffffffffffffffffffffffffffff168273ffffffffffffffffffffffffffffffffffffffff1614156115f8576040517f08c379a00000000000000000000000000000000000000000000000000000000081526004016115ef90612efb565b60405180910390fd5b611603838383611fb8565b61160e60008261137b565b6001600360008573ffffffffffffffffffffffffffffffffffffffff1673ffffffffffffffffffffffffffffffffffffffff168152602001908152602001600020600082825461165e9190613245565b925050819055506001600360008473ffffffffffffffffffffffffffffffffffffffff1673ffffffffffffffffffffffffffffffffffffffff16815260200190815260200160002060008282546116b59190613164565b92505081905550816002600083815260200190815260200160002060006101000a81548173ffffffffffffffffffffffffffffffffffffffff021916908373ffffffffffffffffffffffffffffffffffffffff160217905550808273ffffffffffffffffffffffffffffffffffffffff168473ffffffffffffffffffffffffffffffffffffffff167fddf252ad1be2c89b69c2b068fc378daa952ba7f163c4a11628f55a4df523b3ef60405160405180910390a4611774838383611fbd565b505050565b606060008214156117c1576040518060400160405280600181526020017f30000000000000000000000000000000000000000000000000000000000000008152509050611921565b600082905060005b600082146117f35780806117dc90613392565b915050600a826117ec91906131ba565b91506117c9565b60008167ffffffffffffffff811115611835577f4e487b7100000000000000000000000000000000000000000000000000000000600052604160045260246000fd5b6040519080825280601f01601f1916602001820160405280156118675781602001600182028036833780820191505090505b5090505b6000851461191a576001826118809190613245565b9150600a8561188f91906133db565b603061189b9190613164565b60f81b8183815181106118d7577f4e487b7100000000000000000000000000000000000000000000000000000000600052603260045260246000fd5b60200101907effffffffffffffffffffffffffffffffffffffffffffffffffffffffffffff1916908160001a905350600a8561191391906131ba565b945061186b565b8093505050505b919050565b6000816040516020016119399190612bde565b6040516020818303038152906040528051906020012060001c9050919050565b6119f1828260405160240161196f929190612e2d565b6040516020818303038152906040527f9710a9d0000000000000000000000000000000000000000000000000000000007bffffffffffffffffffffffffffffffffffffffffffffffffffffffff19166020820180517bffffffffffffffffffffffffffffffffffffffffffffffffffffffff8381831617835250505050611f8f565b5050565b600081600001549050919050565b8173ffffffffffffffffffffffffffffffffffffffff168373ffffffffffffffffffffffffffffffffffffffff161415611a72576040517f08c379a0000000000000000000000000000000000000000000000000000000008152600401611a6990612f1b565b60405180910390fd5b80600560008573ffffffffffffffffffffffffffffffffffffffff1673ffffffffffffffffffffffffffffffffffffffff16815260200190815260200160002060008473ffffffffffffffffffffffffffffffffffffffff1673ffffffffffffffffffffffffffffffffffffffff16815260200190815260200160002060006101000a81548160ff0219169083151502179055508173ffffffffffffffffffffffffffffffffffffffff168373ffffffffffffffffffffffffffffffffffffffff167f17307eab39ab6107e8899845ad3d59bd9653f200f220920489ca2b5937696c3183604051611b639190612df0565b60405180910390a3505050565b611b7b848484611512565b611b8784848484611fc2565b611bc6576040517f08c379a0000000000000000000000000000000000000000000000000000000008152600401611bbd90612e9b565b60405180910390fd5b50505050565b606060405180602001604052806000815250905090565b6060611bee82611307565b611c2d576040517f08c379a0000000000000000000000000000000000000000000000000000000008152600401611c249061303b565b60405180910390fd5b6000611c37611bcc565b90506000815111611c575760405180602001604052806000815250611c82565b80611c6184611779565b604051602001611c72929190612bf5565b6040516020818303038152906040525b915050919050565b60606000825190506000811415611cb35760405180602001604052806000815250915050611e43565b60006003600283611cc49190613164565b611cce91906131ba565b6004611cda91906131eb565b90506000602082611ceb9190613164565b67ffffffffffffffff811115611d2a577f4e487b7100000000000000000000000000000000000000000000000000000000600052604160045260246000fd5b6040519080825280601f01601f191660200182016040528015611d5c5781602001600182028036833780820191505090505b5090506000604051806060016040528060408152602001613b93604091399050600181016020830160005b86811015611e005760038101905062ffffff818a015116603f8160121c168401518060081b905060ff603f83600c1c1686015116810190508060081b905060ff603f8360061c1686015116810190508060081b905060ff603f831686015116810190508060e01b90508084526004840193505050611d87565b506003860660018114611e1a5760028114611e2a57611e35565b613d3d60f01b6002830352611e35565b603d60f81b60018303525b508484525050819450505050505b919050565b611e62828260405180602001604052806000815250612159565b5050565b611e6f82611307565b611eae576040517f08c379a0000000000000000000000000000000000000000000000000000000008152600401611ea590612fbb565b60405180910390fd5b80600660008481526020019081526020016000209080519060200190611ed59291906123b1565b505050565b611f74838383604051602401611ef293929190612e5d565b6040516020818303038152906040527fe3849f79000000000000000000000000000000000000000000000000000000007bffffffffffffffffffffffffffffffffffffffffffffffffffffffff19166020820180517bffffffffffffffffffffffffffffffffffffffffffffffffffffffff8381831617835250505050611f8f565b505050565b6001816000016000828254019250508190555050565b60008151905060006a636f6e736f6c652e6c6f679050602083016000808483855afa5050505050565b505050565b505050565b6000611fe38473ffffffffffffffffffffffffffffffffffffffff166121b4565b1561214c578373ffffffffffffffffffffffffffffffffffffffff1663150b7a0261200c611373565b8786866040518563ffffffff1660e01b815260040161202e9493929190612d7b565b602060405180830381600087803b15801561204857600080fd5b505af192505050801561207957506040513d601f19601f8201168201806040525081019061207691906126f5565b60015b6120fc573d80600081146120a9576040519150601f19603f3d011682016040523d82523d6000602084013e6120ae565b606091505b506000815114156120f4576040517f08c379a00000000000000000000000000000000000000000000000000000000081526004016120eb90612e9b565b60405180910390fd5b805181602001fd5b63150b7a0260e01b7bffffffffffffffffffffffffffffffffffffffffffffffffffffffff1916817bffffffffffffffffffffffffffffffffffffffffffffffffffffffff191614915050612151565b600190505b949350505050565b61216383836121d7565b6121706000848484611fc2565b6121af576040517f08c379a00000000000000000000000000000000000000000000000000000000081526004016121a690612e9b565b60405180910390fd5b505050565b6000808273ffffffffffffffffffffffffffffffffffffffff163b119050919050565b600073ffffffffffffffffffffffffffffffffffffffff168273ffffffffffffffffffffffffffffffffffffffff161415612247576040517f08c379a000000000000000000000000000000000000000000000000000000000815260040161223e90612fdb565b60405180910390fd5b61225081611307565b15612290576040517f08c379a000000000000000000000000000000000000000000000000000000000815260040161228790612edb565b60405180910390fd5b61229c60008383611fb8565b6001600360008473ffffffffffffffffffffffffffffffffffffffff1673ffffffffffffffffffffffffffffffffffffffff16815260200190815260200160002060008282546122ec9190613164565b92505081905550816002600083815260200190815260200160002060006101000a81548173ffffffffffffffffffffffffffffffffffffffff021916908373ffffffffffffffffffffffffffffffffffffffff160217905550808273ffffffffffffffffffffffffffffffffffffffff16600073ffffffffffffffffffffffffffffffffffffffff167fddf252ad1be2c89b69c2b068fc378daa952ba7f163c4a11628f55a4df523b3ef60405160405180910390a46123ad60008383611fbd565b5050565b8280546123bd9061332f565b90600052602060002090601f0160209004810192826123df5760008555612426565b82601f106123f857805160ff1916838001178555612426565b82800160010185558215612426579182015b8281111561242557825182559160200191906001019061240a565b5b5090506124339190612437565b5090565b5b80821115612450576000816000905550600101612438565b5090565b6000612467612462846130db565b6130b6565b90508281526020810184848401111561247f57600080fd5b61248a8482856132ed565b509392505050565b6000813590506124a181613b11565b92915050565b6000813590506124b681613b28565b92915050565b6000813590506124cb81613b3f565b92915050565b6000815190506124e081613b3f565b92915050565b600082601f8301126124f757600080fd5b8135612507848260208601612454565b91505092915050565b60008135905061251f81613b56565b92915050565b60006020828403121561253757600080fd5b600061254584828501612492565b91505092915050565b6000806040838503121561256157600080fd5b600061256f85828601612492565b925050602061258085828601612492565b9150509250929050565b60008060006060848603121561259f57600080fd5b60006125ad86828701612492565b93505060206125be86828701612492565b92505060406125cf86828701612510565b9150509250925092565b600080600080608085870312156125ef57600080fd5b60006125fd87828801612492565b945050602061260e87828801612492565b935050604061261f87828801612510565b925050606085013567ffffffffffffffff81111561263c57600080fd5b612648878288016124e6565b91505092959194509250565b6000806040838503121561266757600080fd5b600061267585828601612492565b9250506020612686858286016124a7565b9150509250929050565b600080604083850312156126a357600080fd5b60006126b185828601612492565b92505060206126c285828601612510565b9150509250929050565b6000602082840312156126de57600080fd5b60006126ec848285016124bc565b91505092915050565b60006020828403121561270757600080fd5b6000612715848285016124d1565b91505092915050565b60006020828403121561273057600080fd5b600061273e84828501612510565b91505092915050565b61275081613279565b82525050565b61275f8161328b565b82525050565b600061277082613121565b61277a8185613137565b935061278a8185602086016132fc565b612793816134c8565b840191505092915050565b60006127a98261312c565b6127b38185613148565b93506127c38185602086016132fc565b6127cc816134c8565b840191505092915050565b60006127e28261312c565b6127ec8185613159565b93506127fc8185602086016132fc565b80840191505092915050565b600081546128158161332f565b61281f8186613159565b9450600182166000811461283a576001811461284b5761287e565b60ff1983168652818601935061287e565b6128548561310c565b60005b8381101561287657815481890152600182019150602081019050612857565b838801955050505b50505092915050565b6000612894603283613148565b915061289f826134d9565b604082019050919050565b60006128b7602583613148565b91506128c282613528565b604082019050919050565b60006128da601c83613148565b91506128e582613577565b602082019050919050565b60006128fd600a83613159565b9150612908826135a0565b600a82019050919050565b6000612920602483613148565b915061292b826135c9565b604082019050919050565b6000612943601983613148565b915061294e82613618565b602082019050919050565b6000612966606383613159565b915061297182613641565b606382019050919050565b6000612989600b83613159565b9150612994826136dc565b600b82019050919050565b60006129ac602c83613148565b91506129b782613705565b604082019050919050565b60006129cf600d83613159565b91506129da82613754565b600d82019050919050565b60006129f2603883613148565b91506129fd8261377d565b604082019050919050565b6000612a15602a83613148565b9150612a20826137cc565b604082019050919050565b6000612a38602983613148565b9150612a438261381b565b604082019050919050565b6000612a5b602e83613148565b9150612a668261386a565b604082019050919050565b6000612a7e600283613159565b9150612a89826138b9565b600282019050919050565b6000612aa1602083613148565b9150612aac826138e2565b602082019050919050565b6000612ac4603183613148565b9150612acf8261390b565b604082019050919050565b6000612ae7602c83613148565b9150612af28261395a565b604082019050919050565b6000612b0a602f83613148565b9150612b15826139a9565b604082019050919050565b6000612b2d600a83613159565b9150612b38826139f8565b600a82019050919050565b6000612b50602183613148565b9150612b5b82613a21565b604082019050919050565b6000612b73600a83613159565b9150612b7e82613a70565b600a82019050919050565b6000612b96601d83613159565b9150612ba182613a99565b601d82019050919050565b6000612bb9603183613148565b9150612bc482613ac2565b604082019050919050565b612bd8816132e3565b82525050565b6000612bea82846127d7565b915081905092915050565b6000612c0182856127d7565b9150612c0d82846127d7565b91508190509392505050565b6000612c2582866127d7565b9150612c3182856127d7565b9150612c3d82846127d7565b9150819050949350505050565b6000612c568287612808565b9150612c6282866127d7565b9150612c6e82856127d7565b9150612c7a82846127d7565b9150612c85826129c2565b915081905095945050505050565b6000612c9e826128f0565b9150612caa82846127d7565b915081905092915050565b6000612cc08261297c565b9150612ccc82846127d7565b915081905092915050565b6000612ce282612b20565b9150612cee82856127d7565b9150612cf982612959565b9150612d0582846127d7565b9150612d1082612a71565b91508190509392505050565b6000612d2782612b66565b9150612d3382846127d7565b915081905092915050565b6000612d4982612b89565b9150612d5582846127d7565b915081905092915050565b6000602082019050612d756000830184612747565b92915050565b6000608082019050612d906000830187612747565b612d9d6020830186612747565b612daa6040830185612bcf565b8181036060830152612dbc8184612765565b905095945050505050565b6000604082019050612ddc6000830185612747565b612de96020830184612bcf565b9392505050565b6000602082019050612e056000830184612756565b92915050565b60006020820190508181036000830152612e25818461279e565b905092915050565b60006040820190508181036000830152612e47818561279e565b9050612e566020830184612bcf565b9392505050565b60006060820190508181036000830152612e77818661279e565b9050612e866020830185612bcf565b612e936040830184612747565b949350505050565b60006020820190508181036000830152612eb481612887565b9050919050565b60006020820190508181036000830152612ed4816128aa565b9050919050565b60006020820190508181036000830152612ef4816128cd565b9050919050565b60006020820190508181036000830152612f1481612913565b9050919050565b60006020820190508181036000830152612f3481612936565b9050919050565b60006020820190508181036000830152612f548161299f565b9050919050565b60006020820190508181036000830152612f74816129e5565b9050919050565b60006020820190508181036000830152612f9481612a08565b9050919050565b60006020820190508181036000830152612fb481612a2b565b9050919050565b60006020820190508181036000830152612fd481612a4e565b9050919050565b60006020820190508181036000830152612ff481612a94565b9050919050565b6000602082019050818103600083015261301481612ab7565b9050919050565b6000602082019050818103600083015261303481612ada565b9050919050565b6000602082019050818103600083015261305481612afd565b9050919050565b6000602082019050818103600083015261307481612b43565b9050919050565b6000602082019050818103600083015261309481612bac565b9050919050565b60006020820190506130b06000830184612bcf565b92915050565b60006130c06130d1565b90506130cc8282613361565b919050565b6000604051905090565b600067ffffffffffffffff8211156130f6576130f5613499565b5b6130ff826134c8565b9050602081019050919050565b60008190508160005260206000209050919050565b600081519050919050565b600081519050919050565b600082825260208201905092915050565b600082825260208201905092915050565b600081905092915050565b600061316f826132e3565b915061317a836132e3565b9250827fffffffffffffffffffffffffffffffffffffffffffffffffffffffffffffffff038211156131af576131ae61340c565b5b828201905092915050565b60006131c5826132e3565b91506131d0836132e3565b9250826131e0576131df61343b565b5b828204905092915050565b60006131f6826132e3565b9150613201836132e3565b9250817fffffffffffffffffffffffffffffffffffffffffffffffffffffffffffffffff048311821515161561323a5761323961340c565b5b828202905092915050565b6000613250826132e3565b915061325b836132e3565b92508282101561326e5761326d61340c565b5b828203905092915050565b6000613284826132c3565b9050919050565b60008115159050919050565b60007fffffffff0000000000000000000000000000000000000000000000000000000082169050919050565b600073ffffffffffffffffffffffffffffffffffffffff82169050919050565b6000819050919050565b82818337600083830152505050565b60005b8381101561331a5780820151818401526020810190506132ff565b83811115613329576000848401525b50505050565b6000600282049050600182168061334757607f821691505b6020821081141561335b5761335a61346a565b5b50919050565b61336a826134c8565b810181811067ffffffffffffffff8211171561338957613388613499565b5b80604052505050565b600061339d826132e3565b91507fffffffffffffffffffffffffffffffffffffffffffffffffffffffffffffffff8214156133d0576133cf61340c565b5b600182019050919050565b60006133e6826132e3565b91506133f1836132e3565b9250826134015761340061343b565b5b828206905092915050565b7f4e487b7100000000000000000000000000000000000000000000000000000000600052601160045260246000fd5b7f4e487b7100000000000000000000000000000000000000000000000000000000600052601260045260246000fd5b7f4e487b7100000000000000000000000000000000000000000000000000000000600052602260045260246000fd5b7f4e487b7100000000000000000000000000000000000000000000000000000000600052604160045260246000fd5b6000601f19601f8301169050919050565b7f4552433732313a207472616e7366657220746f206e6f6e20455243373231526560008201527f63656976657220696d706c656d656e7465720000000000000000000000000000602082015250565b7f4552433732313a207472616e736665722066726f6d20696e636f72726563742060008201527f6f776e6572000000000000000000000000000000000000000000000000000000602082015250565b7f4552433732313a20746f6b656e20616c7265616479206d696e74656400000000600082015250565b7f54484952445f574f524400000000000000000000000000000000000000000000600082015250565b7f4552433732313a207472616e7366657220746f20746865207a65726f2061646460008201527f7265737300000000000000000000000000000000000000000000000000000000602082015250565b7f4552433732313a20617070726f766520746f2063616c6c657200000000000000600082015250565b7f222c20226465736372697074696f6e223a20224120686967686c79206163636c60008201527f61696d656420636f6c6c656374696f6e206f6620737175617265732e222c202260208201527f696d616765223a2022646174613a696d6167652f7376672b786d6c3b6261736560408201527f36342c0000000000000000000000000000000000000000000000000000000000606082015250565b7f5345434f4e445f574f5244000000000000000000000000000000000000000000600082015250565b7f4552433732313a206f70657261746f7220717565727920666f72206e6f6e657860008201527f697374656e7420746f6b656e0000000000000000000000000000000000000000602082015250565b7f3c2f746578743e3c2f7376673e00000000000000000000000000000000000000600082015250565b7f4552433732313a20617070726f76652063616c6c6572206973206e6f74206f7760008201527f6e6572206e6f7220617070726f76656420666f7220616c6c0000000000000000602082015250565b7f4552433732313a2062616c616e636520717565727920666f7220746865207a6560008201527f726f206164647265737300000000000000000000000000000000000000000000602082015250565b7f4552433732313a206f776e657220717565727920666f72206e6f6e657869737460008201527f656e7420746f6b656e0000000000000000000000000000000000000000000000602082015250565b7f45524337323155524953746f726167653a2055524920736574206f66206e6f6e60008201527f6578697374656e7420746f6b656e000000000000000000000000000000000000602082015250565b7f227d000000000000000000000000000000000000000000000000000000000000600082015250565b7f4552433732313a206d696e7420746f20746865207a65726f2061646472657373600082015250565b7f45524337323155524953746f726167653a2055524920717565727920666f722060008201527f6e6f6e6578697374656e7420746f6b656e000000000000000000000000000000602082015250565b7f4552433732313a20617070726f76656420717565727920666f72206e6f6e657860008201527f697374656e7420746f6b656e0000000000000000000000000000000000000000602082015250565b7f4552433732314d657461646174613a2055524920717565727920666f72206e6f60008201527f6e6578697374656e7420746f6b656e0000000000000000000000000000000000602082015250565b7f7b226e616d65223a202200000000000000000000000000000000000000000000600082015250565b7f4552433732313a20617070726f76616c20746f2063757272656e74206f776e6560008201527f7200000000000000000000000000000000000000000000000000000000000000602082015250565b7f46495253545f574f524400000000000000000000000000000000000000000000600082015250565b7f646174613a6170706c69636174696f6e2f6a736f6e3b6261736536342c000000600082015250565b7f4552433732313a207472616e736665722063616c6c6572206973206e6f74206f60008201527f776e6572206e6f7220617070726f766564000000000000000000000000000000602082015250565b613b1a81613279565b8114613b2557600080fd5b50565b613b318161328b565b8114613b3c57600080fd5b50565b613b4881613297565b8114613b5357600080fd5b50565b613b5f816132e3565b8114613b6a57600080fd5b5056fe416e204e465420772f20494420257320686173206265656e206d696e74656420746f2025734142434445464748494a4b4c4d4e4f505152535455565758595a6162636465666768696a6b6c6d6e6f707172737475767778797a303132333435363738392b2fa264697066735822122012630b773d6bd203f12ab42e1a8dc15540bf15e4c24de64decf5d6014d417bc464736f6c634300080400333c73766720786d6c6e733d27687474703a2f2f7777772e77332e6f72672f323030302f73766727207072657365727665417370656374526174696f3d27784d696e594d696e206d656574272076696577426f783d273020302033353020333530273e3c7374796c653e2e62617365207b2066696c6c3a2077686974653b20666f6e742d66616d696c793a2073657269663b20666f6e742d73697a653a20323470783b207d3c2f7374796c653e3c726563742077696474683d273130302527206865696768743d2731303025272066696c6c3d27626c61636b27202f3e3c7465787420783d273530252720793d273530252720636c6173733d27626173652720646f6d696e616e742d626173656c696e653d276d6964646c652720746578742d616e63686f723d276d6964646c65273e",
    "linkReferences": {},
    "deployedLinkReferences": {}
}